{
  "_format": "hh-sol-artifact-1",
  "contractName": "USDC20Vault",
  "sourceName": "contracts/USDC20Vault.sol",
  "abi": [
    {
      "inputs": [
        {
          "internalType": "address",
          "name": "_usdc20Address",
          "type": "address"
        }
      ],
      "stateMutability": "nonpayable",
      "type": "constructor"
    },
    {
      "inputs": [
        {
          "internalType": "address",
          "name": "owner",
          "type": "address"
        }
      ],
      "name": "OwnableInvalidOwner",
      "type": "error"
    },
    {
      "inputs": [
        {
          "internalType": "address",
          "name": "account",
          "type": "address"
        }
      ],
      "name": "OwnableUnauthorizedAccount",
      "type": "error"
    },
    {
      "inputs": [],
      "name": "ReentrancyGuardReentrantCall",
      "type": "error"
    },
    {
      "anonymous": false,
      "inputs": [
        {
          "indexed": true,
          "internalType": "address",
          "name": "bidder",
          "type": "address"
        },
        {
          "indexed": false,
          "internalType": "uint256",
          "name": "amount",
          "type": "uint256"
        },
        {
          "indexed": false,
          "internalType": "uint256",
          "name": "vaultFee",
          "type": "uint256"
        },
        {
          "indexed": false,
          "internalType": "uint256",
          "name": "deployerFee",
          "type": "uint256"
        }
      ],
      "name": "BidPlaced",
      "type": "event"
    },
    {
      "anonymous": false,
      "inputs": [
        {
          "indexed": true,
          "internalType": "address",
          "name": "bidder",
          "type": "address"
        },
        {
          "indexed": false,
          "internalType": "uint256",
          "name": "amount",
          "type": "uint256"
        }
      ],
      "name": "BidderRefunded",
      "type": "event"
    },
    {
      "anonymous": false,
      "inputs": [
        {
          "indexed": true,
          "internalType": "address",
          "name": "previousOwner",
          "type": "address"
        },
        {
          "indexed": true,
          "internalType": "address",
          "name": "newOwner",
          "type": "address"
        }
      ],
      "name": "OwnershipTransferred",
      "type": "event"
    },
    {
      "inputs": [],
      "name": "BASE_INCREMENT",
      "outputs": [
        {
          "internalType": "uint256",
          "name": "",
          "type": "uint256"
        }
      ],
      "stateMutability": "view",
      "type": "function"
    },
    {
      "inputs": [],
      "name": "DEPLOYER_FEE_BPS",
      "outputs": [
        {
          "internalType": "uint256",
          "name": "",
          "type": "uint256"
        }
      ],
      "stateMutability": "view",
      "type": "function"
    },
    {
      "inputs": [],
      "name": "HOUR_IN_SECONDS",
      "outputs": [
        {
          "internalType": "uint256",
          "name": "",
          "type": "uint256"
        }
      ],
      "stateMutability": "view",
      "type": "function"
    },
    {
      "inputs": [],
      "name": "TOTAL_FEE_BPS",
      "outputs": [
        {
          "internalType": "uint256",
          "name": "",
          "type": "uint256"
        }
      ],
      "stateMutability": "view",
      "type": "function"
    },
    {
      "inputs": [],
      "name": "VAULT_FEE_BPS",
      "outputs": [
        {
          "internalType": "uint256",
          "name": "",
          "type": "uint256"
        }
      ],
      "stateMutability": "view",
      "type": "function"
    },
    {
      "inputs": [
        {
          "internalType": "uint256",
          "name": "amount",
          "type": "uint256"
        }
      ],
      "name": "addToPrizePool",
      "outputs": [],
      "stateMutability": "nonpayable",
      "type": "function"
    },
    {
      "inputs": [],
      "name": "canClaim",
      "outputs": [
        {
          "internalType": "bool",
          "name": "",
          "type": "bool"
        }
      ],
      "stateMutability": "view",
      "type": "function"
    },
    {
      "inputs": [],
      "name": "claim",
      "outputs": [],
      "stateMutability": "nonpayable",
      "type": "function"
    },
    {
      "inputs": [],
      "name": "claimed",
      "outputs": [
        {
          "internalType": "bool",
          "name": "",
          "type": "bool"
        }
      ],
      "stateMutability": "view",
      "type": "function"
    },
    {
      "inputs": [],
      "name": "currentBaseAmount",
      "outputs": [
        {
          "internalType": "uint256",
          "name": "",
          "type": "uint256"
        }
      ],
      "stateMutability": "view",
      "type": "function"
    },
    {
      "inputs": [],
      "name": "getNextBidAmount",
      "outputs": [
        {
          "internalType": "uint256",
          "name": "",
          "type": "uint256"
        }
      ],
      "stateMutability": "view",
      "type": "function"
    },
    {
      "inputs": [],
      "name": "getPrizePool",
      "outputs": [
        {
          "internalType": "uint256",
          "name": "",
          "type": "uint256"
        }
      ],
      "stateMutability": "view",
      "type": "function"
    },
    {
      "inputs": [],
      "name": "highestBid",
      "outputs": [
        {
          "internalType": "uint256",
          "name": "",
          "type": "uint256"
        }
      ],
      "stateMutability": "view",
      "type": "function"
    },
    {
      "inputs": [],
      "name": "highestBidder",
      "outputs": [
        {
          "internalType": "address",
          "name": "",
          "type": "address"
        }
      ],
      "stateMutability": "view",
      "type": "function"
    },
    {
      "inputs": [],
      "name": "init",
      "outputs": [
        {
          "internalType": "bool",
          "name": "",
          "type": "bool"
        }
      ],
      "stateMutability": "view",
      "type": "function"
    },
    {
      "inputs": [],
      "name": "lastBidTime",
      "outputs": [
        {
          "internalType": "uint256",
          "name": "",
          "type": "uint256"
        }
      ],
      "stateMutability": "view",
      "type": "function"
    },
    {
      "inputs": [],
      "name": "owner",
      "outputs": [
        {
          "internalType": "address",
          "name": "",
          "type": "address"
        }
      ],
      "stateMutability": "view",
      "type": "function"
    },
    {
      "inputs": [],
      "name": "placeBid",
      "outputs": [],
      "stateMutability": "nonpayable",
      "type": "function"
    },
    {
      "inputs": [],
      "name": "prizePool",
      "outputs": [
        {
          "internalType": "uint256",
          "name": "",
          "type": "uint256"
        }
      ],
      "stateMutability": "view",
      "type": "function"
    },
    {
      "inputs": [],
      "name": "renounceOwnership",
      "outputs": [],
      "stateMutability": "nonpayable",
      "type": "function"
    },
    {
      "inputs": [],
      "name": "startGame",
      "outputs": [],
      "stateMutability": "nonpayable",
      "type": "function"
    },
    {
      "inputs": [
        {
          "internalType": "address",
          "name": "newOwner",
          "type": "address"
        }
      ],
      "name": "transferOwnership",
      "outputs": [],
      "stateMutability": "nonpayable",
      "type": "function"
    },
    {
      "inputs": [],
      "name": "usdc20",
      "outputs": [
        {
          "internalType": "contract IERC20",
          "name": "",
          "type": "address"
        }
      ],
      "stateMutability": "view",
      "type": "function"
    }
  ],
  "bytecode": "0x608060405234801561001057600080fd5b50604051611ee4380380611ee483398181016040528101906100329190610260565b33600073ffffffffffffffffffffffffffffffffffffffff168173ffffffffffffffffffffffffffffffffffffffff16036100a55760006040517f1e4fbdf700000000000000000000000000000000000000000000000000000000815260040161009c919061029c565b60405180910390fd5b6100b48161013960201b60201c565b506001808190555080600260006101000a81548173ffffffffffffffffffffffffffffffffffffffff021916908373ffffffffffffffffffffffffffffffffffffffff1602179055506000600860006101000a81548160ff0219169083151502179055506000600860016101000a81548160ff021916908315150217905550506102b7565b60008060009054906101000a900473ffffffffffffffffffffffffffffffffffffffff169050816000806101000a81548173ffffffffffffffffffffffffffffffffffffffff021916908373ffffffffffffffffffffffffffffffffffffffff1602179055508173ffffffffffffffffffffffffffffffffffffffff168173ffffffffffffffffffffffffffffffffffffffff167f8be0079c531659141344cd1fd0a4f28419497f9722a3daafe3b4186f6b6457e060405160405180910390a35050565b600080fd5b600073ffffffffffffffffffffffffffffffffffffffff82169050919050565b600061022d82610202565b9050919050565b61023d81610222565b811461024857600080fd5b50565b60008151905061025a81610234565b92915050565b600060208284031215610276576102756101fd565b5b60006102848482850161024b565b91505092915050565b61029681610222565b82525050565b60006020820190506102b1600083018461028d565b92915050565b611c1e806102c66000396000f3fe608060405234801561001057600080fd5b506004361061014d5760003560e01c8063719ce73e116100c3578063d57bde791161007c578063d57bde7914610326578063d65ab5f214610344578063e1c7392a1461034e578063e834a8341461036c578063ecfc7ecc1461038a578063f2fde38b146103945761014d565b8063719ce73e1461027257806371ac087614610290578063884bf67c146102ae5780638da5cb5b146102cc5780638f8a30ca146102ea57806391f90157146103085761014d565b80634e71d92d116101155780634e71d92d146101e657806355458ec0146101f0578063642ab4b11461020e5780636dc7a6271461022c5780636f28507c1461024a578063715018a6146102685761014d565b8063186ba2531461015257806335fda2d11461016e5780633ee881331461018c57806342f19629146101aa578063472bd5fc146101c8575b600080fd5b61016c600480360381019061016791906112cb565b6103b0565b005b6101766104b5565b6040516101839190611307565b60405180910390f35b6101946104c2565b6040516101a191906113a1565b60405180910390f35b6101b26104e8565b6040516101bf9190611307565b60405180910390f35b6101d06104ed565b6040516101dd9190611307565b60405180910390f35b6101ee6104f2565b005b6101f86107d1565b6040516102059190611307565b60405180910390f35b6102166107d7565b6040516102239190611307565b60405180910390f35b6102346107dd565b60405161024191906113d7565b60405180910390f35b6102526108b9565b60405161025f9190611307565b60405180910390f35b6102706108ca565b005b61027a6108de565b6040516102879190611307565b60405180910390f35b6102986108e4565b6040516102a59190611307565b60405180910390f35b6102b66108e9565b6040516102c39190611307565b60405180910390f35b6102d46108f3565b6040516102e19190611413565b60405180910390f35b6102f261091c565b6040516102ff9190611307565b60405180910390f35b61031061098f565b60405161031d9190611413565b60405180910390f35b61032e6109b5565b60405161033b9190611307565b60405180910390f35b61034c6109bb565b005b6103566109e0565b60405161036391906113d7565b60405180910390f35b6103746109f3565b60405161038191906113d7565b60405180910390f35b610392610a06565b005b6103ae60048036038101906103a9919061145a565b611068565b005b6103b86110ee565b600260009054906101000a900473ffffffffffffffffffffffffffffffffffffffff1673ffffffffffffffffffffffffffffffffffffffff166323b872dd3330846040518463ffffffff1660e01b815260040161041793929190611487565b6020604051808303816000875af1158015610436573d6000803e3d6000fd5b505050506040513d601f19601f8201168201806040525081019061045a91906114ea565b610499576040517f08c379a000000000000000000000000000000000000000000000000000000000815260040161049090611574565b60405180910390fd5b80600660008282546104ab91906115c3565b9250508190555050565b68056bc75e2d6310000081565b600260009054906101000a900473ffffffffffffffffffffffffffffffffffffffff1681565b603c81565b606481565b6104fa6107dd565b610539576040517f08c379a000000000000000000000000000000000000000000000000000000000815260040161053090611669565b60405180910390fd5b600360009054906101000a900473ffffffffffffffffffffffffffffffffffffffff1673ffffffffffffffffffffffffffffffffffffffff163373ffffffffffffffffffffffffffffffffffffffff16146105c9576040517f08c379a00000000000000000000000000000000000000000000000000000000081526004016105c0906116d5565b60405180910390fd5b6001600860006101000a81548160ff021916908315150217905550600260009054906101000a900473ffffffffffffffffffffffffffffffffffffffff1673ffffffffffffffffffffffffffffffffffffffff1663a9059cbb600360009054906101000a900473ffffffffffffffffffffffffffffffffffffffff166006546040518363ffffffff1660e01b81526004016106659291906116f5565b6020604051808303816000875af1158015610684573d6000803e3d6000fd5b505050506040513d601f19601f820116820180604052508101906106a891906114ea565b6106e7576040517f08c379a00000000000000000000000000000000000000000000000000000000081526004016106de9061176a565b60405180910390fd5b600260009054906101000a900473ffffffffffffffffffffffffffffffffffffffff1673ffffffffffffffffffffffffffffffffffffffff1663a9059cbb61072d6108f3565b6004546040518363ffffffff1660e01b815260040161074d9291906116f5565b6020604051808303816000875af115801561076c573d6000803e3d6000fd5b505050506040513d601f19601f8201168201806040525081019061079091906114ea565b6107cf576040517f08c379a00000000000000000000000000000000000000000000000000000000081526004016107c6906117d6565b60405180910390fd5b565b60045481565b60075481565b6000600860019054906101000a900460ff1661082e576040517f08c379a000000000000000000000000000000000000000000000000000000000815260040161082590611842565b60405180910390fd5b600860009054906101000a900460ff161580156108595750603c60075461085591906115c3565b4210155b80156108b45750600073ffffffffffffffffffffffffffffffffffffffff16600360009054906101000a900473ffffffffffffffffffffffffffffffffffffffff1673ffffffffffffffffffffffffffffffffffffffff1614155b905090565b603260646108c791906115c3565b81565b6108d26110ee565b6108dc6000611175565b565b60065481565b603281565b6000600654905090565b60008060009054906101000a900473ffffffffffffffffffffffffffffffffffffffff16905090565b6000806000600454146109455768056bc75e2d6310000060045461094091906115c3565b610950565b68056bc75e2d631000005b905060006127106032606461096591906115c3565b836109709190611862565b61097a91906118d3565b9050808261098891906115c3565b9250505090565b600360009054906101000a900473ffffffffffffffffffffffffffffffffffffffff1681565b60055481565b6109c36110ee565b6001600860016101000a81548160ff021916908315150217905550565b600860019054906101000a900460ff1681565b600860009054906101000a900460ff1681565b610a0e611239565b600860019054906101000a900460ff16610a5d576040517f08c379a0000000000000000000000000000000000000000000000000000000008152600401610a5490611950565b60405180910390fd5b610a656107dd565b15610aa5576040517f08c379a0000000000000000000000000000000000000000000000000000000008152600401610a9c906119e2565b60405180910390fd5b60008060045414610acc5768056bc75e2d63100000600454610ac791906115c3565b610ad7565b68056bc75e2d631000005b90506000612710606483610aeb9190611862565b610af591906118d3565b90506000612710603284610b099190611862565b610b1391906118d3565b90506000818385610b2491906115c3565b610b2e91906115c3565b905064e8d4a5100081610b4191906118d3565b600260009054906101000a900473ffffffffffffffffffffffffffffffffffffffff1673ffffffffffffffffffffffffffffffffffffffff1663dd62ed3e33306040518363ffffffff1660e01b8152600401610b9e929190611a02565b602060405180830381865afa158015610bbb573d6000803e3d6000fd5b505050506040513d601f19601f82011682018060405250810190610bdf9190611a40565b1015610c20576040517f08c379a0000000000000000000000000000000000000000000000000000000008152600401610c1790611ab9565b60405180910390fd5b6000600360009054906101000a900473ffffffffffffffffffffffffffffffffffffffff16905060006004549050600260009054906101000a900473ffffffffffffffffffffffffffffffffffffffff1673ffffffffffffffffffffffffffffffffffffffff166323b872dd333064e8d4a5100087610c9f91906118d3565b6040518463ffffffff1660e01b8152600401610cbd93929190611487565b6020604051808303816000875af1158015610cdc573d6000803e3d6000fd5b505050506040513d601f19601f82011682018060405250810190610d0091906114ea565b610d3f576040517f08c379a0000000000000000000000000000000000000000000000000000000008152600401610d3690611574565b60405180910390fd5b33600360006101000a81548173ffffffffffffffffffffffffffffffffffffffff021916908373ffffffffffffffffffffffffffffffffffffffff16021790555085600481905550826005819055508460066000828254610da091906115c3565b9250508190555042600781905550600260009054906101000a900473ffffffffffffffffffffffffffffffffffffffff1673ffffffffffffffffffffffffffffffffffffffff1663a9059cbb610df46108f3565b64e8d4a5100087610e0591906118d3565b6040518363ffffffff1660e01b8152600401610e229291906116f5565b6020604051808303816000875af1158015610e41573d6000803e3d6000fd5b505050506040513d601f19601f82011682018060405250810190610e6591906114ea565b610ea4576040517f08c379a0000000000000000000000000000000000000000000000000000000008152600401610e9b90611b25565b60405180910390fd5b600073ffffffffffffffffffffffffffffffffffffffff168273ffffffffffffffffffffffffffffffffffffffff161461100657600260009054906101000a900473ffffffffffffffffffffffffffffffffffffffff1673ffffffffffffffffffffffffffffffffffffffff1663a9059cbb83836040518363ffffffff1660e01b8152600401610f359291906116f5565b6020604051808303816000875af1158015610f54573d6000803e3d6000fd5b505050506040513d601f19601f82011682018060405250810190610f7891906114ea565b610fb7576040517f08c379a0000000000000000000000000000000000000000000000000000000008152600401610fae90611b91565b60405180910390fd5b8173ffffffffffffffffffffffffffffffffffffffff167fb68630624831a3c69cc6bb427a9b914261a14121aa4a23b9a98bcb9b0d98afdf82604051610ffd9190611307565b60405180910390a25b3373ffffffffffffffffffffffffffffffffffffffff167fb46d776cdb48d081a0c7d3ff32dc2792e4e8fbce788723207515723628020d3284878760405161105093929190611bb1565b60405180910390a250505050505061106661127f565b565b6110706110ee565b600073ffffffffffffffffffffffffffffffffffffffff168173ffffffffffffffffffffffffffffffffffffffff16036110e25760006040517f1e4fbdf70000000000000000000000000000000000000000000000000000000081526004016110d99190611413565b60405180910390fd5b6110eb81611175565b50565b6110f6611288565b73ffffffffffffffffffffffffffffffffffffffff166111146108f3565b73ffffffffffffffffffffffffffffffffffffffff161461117357611137611288565b6040517f118cdaa700000000000000000000000000000000000000000000000000000000815260040161116a9190611413565b60405180910390fd5b565b60008060009054906101000a900473ffffffffffffffffffffffffffffffffffffffff169050816000806101000a81548173ffffffffffffffffffffffffffffffffffffffff021916908373ffffffffffffffffffffffffffffffffffffffff1602179055508173ffffffffffffffffffffffffffffffffffffffff168173ffffffffffffffffffffffffffffffffffffffff167f8be0079c531659141344cd1fd0a4f28419497f9722a3daafe3b4186f6b6457e060405160405180910390a35050565b600260015403611275576040517f3ee5aeb500000000000000000000000000000000000000000000000000000000815260040160405180910390fd5b6002600181905550565b60018081905550565b600033905090565b600080fd5b6000819050919050565b6112a881611295565b81146112b357600080fd5b50565b6000813590506112c58161129f565b92915050565b6000602082840312156112e1576112e0611290565b5b60006112ef848285016112b6565b91505092915050565b61130181611295565b82525050565b600060208201905061131c60008301846112f8565b92915050565b600073ffffffffffffffffffffffffffffffffffffffff82169050919050565b6000819050919050565b600061136761136261135d84611322565b611342565b611322565b9050919050565b60006113798261134c565b9050919050565b600061138b8261136e565b9050919050565b61139b81611380565b82525050565b60006020820190506113b66000830184611392565b92915050565b60008115159050919050565b6113d1816113bc565b82525050565b60006020820190506113ec60008301846113c8565b92915050565b60006113fd82611322565b9050919050565b61140d816113f2565b82525050565b60006020820190506114286000830184611404565b92915050565b611437816113f2565b811461144257600080fd5b50565b6000813590506114548161142e565b92915050565b6000602082840312156114705761146f611290565b5b600061147e84828501611445565b91505092915050565b600060608201905061149c6000830186611404565b6114a96020830185611404565b6114b660408301846112f8565b949350505050565b6114c7816113bc565b81146114d257600080fd5b50565b6000815190506114e4816114be565b92915050565b600060208284031215611500576114ff611290565b5b600061150e848285016114d5565b91505092915050565b600082825260208201905092915050565b7f5472616e73666572206661696c65640000000000000000000000000000000000600082015250565b600061155e600f83611517565b915061156982611528565b602082019050919050565b6000602082019050818103600083015261158d81611551565b9050919050565b7f4e487b7100000000000000000000000000000000000000000000000000000000600052601160045260246000fd5b60006115ce82611295565b91506115d983611295565b92508282019050808211156115f1576115f0611594565b5b92915050565b7f43616e6e6f7420636c61696d20796574206f7220616c726561647920636c616960008201527f6d65640000000000000000000000000000000000000000000000000000000000602082015250565b6000611653602383611517565b915061165e826115f7565b604082019050919050565b6000602082019050818103600083015261168281611646565b9050919050565b7f4f6e6c792068696768657374206269646465722063616e20636c61696d000000600082015250565b60006116bf601d83611517565b91506116ca82611689565b602082019050919050565b600060208201905081810360008301526116ee816116b2565b9050919050565b600060408201905061170a6000830185611404565b61171760208301846112f8565b9392505050565b7f5072697a65207472616e73666572206661696c65640000000000000000000000600082015250565b6000611754601583611517565b915061175f8261171e565b602082019050919050565b6000602082019050818103600083015261178381611747565b9050919050565b7f46696e616c20626964207472616e73666572206661696c656400000000000000600082015250565b60006117c0601983611517565b91506117cb8261178a565b602082019050919050565b600060208201905081810360008301526117ef816117b3565b9050919050565b7f47616d6520686173206e6f742062656520737461727465640000000000000000600082015250565b600061182c601883611517565b9150611837826117f6565b602082019050919050565b6000602082019050818103600083015261185b8161181f565b9050919050565b600061186d82611295565b915061187883611295565b925082820261188681611295565b9150828204841483151761189d5761189c611594565b5b5092915050565b7f4e487b7100000000000000000000000000000000000000000000000000000000600052601260045260246000fd5b60006118de82611295565b91506118e983611295565b9250826118f9576118f86118a4565b5b828204905092915050565b7f47616d6520686173206e6f74206265656e207374617274656400000000000000600082015250565b600061193a601983611517565b915061194582611904565b602082019050919050565b600060208201905081810360008301526119698161192d565b9050919050565b7f47616d6520697320726561647920666f7220636c61696d696e672c206e6f206d60008201527f6f7265206269647320616c6c6f77656400000000000000000000000000000000602082015250565b60006119cc603083611517565b91506119d782611970565b604082019050919050565b600060208201905081810360008301526119fb816119bf565b9050919050565b6000604082019050611a176000830185611404565b611a246020830184611404565b9392505050565b600081519050611a3a8161129f565b92915050565b600060208284031215611a5657611a55611290565b5b6000611a6484828501611a2b565b91505092915050565b7f496e73756666696369656e7420616c6c6f77616e636500000000000000000000600082015250565b6000611aa3601683611517565b9150611aae82611a6d565b602082019050919050565b60006020820190508181036000830152611ad281611a96565b9050919050565b7f4465706c6f79657220666565207472616e73666572206661696c656400000000600082015250565b6000611b0f601c83611517565b9150611b1a82611ad9565b602082019050919050565b60006020820190508181036000830152611b3e81611b02565b9050919050565b7f526566756e64206661696c656400000000000000000000000000000000000000600082015250565b6000611b7b600d83611517565b9150611b8682611b45565b602082019050919050565b60006020820190508181036000830152611baa81611b6e565b9050919050565b6000606082019050611bc660008301866112f8565b611bd360208301856112f8565b611be060408301846112f8565b94935050505056fea2646970667358221220baa91753751fbfa406c5979a3f7adbd7748e14e39a5bed848f183a6c4b84df7764736f6c634300081c0033",
  "linkReferences": {},
  "deployedLinkReferences": {}
}